{
  "address": "0x3C2911C30D79Cea1be2Ca0CaCCC50c2D275Ca018",
  "abi": [
    {
      "anonymous": false,
      "inputs": [
        {
          "indexed": false,
          "internalType": "address",
          "name": "nft",
          "type": "address"
        }
      ],
      "name": "NewNFTCreated",
      "type": "event"
    },
    {
      "inputs": [
        {
          "internalType": "string",
          "name": "name",
          "type": "string"
        },
        {
          "internalType": "string",
          "name": "symbol",
          "type": "string"
        }
      ],
      "name": "create",
      "outputs": [],
      "stateMutability": "nonpayable",
      "type": "function"
    }
  ],
  "transactionHash": "0x056a53aa0f6cd4a7805119f09e4a6caf90bf1c3beaa9576de31d3528bcdd1eda",
  "args": [],
  "numDeployments": 5,
  "solcInputHash": "7d6f0a415fb7dc4a7cb4c6c54b483d40",
  "bytecode": "0x608060405234801561001057600080fd5b50611978806100206000396000f3fe608060405234801561001057600080fd5b506004361061002b5760003560e01c8063198e2b8a14610030575b600080fd5b61004361003e36600461027d565b610045565b005b60008282604051610055906101cd565b61006092919061032e565b604051809103906000f08015801561007c573d6000803e3d6000fd5b506040516335313c2160e11b81523360048201529091506001600160a01b03821690636a62784290602401600060405180830381600087803b1580156100c157600080fd5b505af11580156100d5573d6000803e3d6000fd5b50506040516335313c2160e11b81523360048201526001600160a01b0384169250636a6278429150602401600060405180830381600087803b15801561011a57600080fd5b505af115801561012e573d6000803e3d6000fd5b50506040516335313c2160e11b81523360048201526001600160a01b0384169250636a6278429150602401600060405180830381600087803b15801561017357600080fd5b505af1158015610187573d6000803e3d6000fd5b50506040516001600160a01b03841681527f0663b3718df43f3da11bc96c4edb307f928bd93368e3db740c680c829899a67d9250602001905060405180910390a1505050565b6115e68061035d83390190565b634e487b7160e01b600052604160045260246000fd5b600082601f83011261020157600080fd5b813567ffffffffffffffff8082111561021c5761021c6101da565b604051601f8301601f19908116603f01168101908282118183101715610244576102446101da565b8160405283815286602085880101111561025d57600080fd5b836020870160208301376000602085830101528094505050505092915050565b6000806040838503121561029057600080fd5b823567ffffffffffffffff808211156102a857600080fd5b6102b4868387016101f0565b935060208501359150808211156102ca57600080fd5b506102d7858286016101f0565b9150509250929050565b6000815180845260005b81811015610307576020818501810151868301820152016102eb565b81811115610319576000602083870101525b50601f01601f19169290920160200192915050565b60408152600061034160408301856102e1565b828103602084015261035381856102e1565b9594505050505056fe608060405260006006553480156200001657600080fd5b50604051620015e6380380620015e68339810160408190526200003991620001e6565b8151829082906200005290600090602085019062000073565b5080516200006890600190602084019062000073565b50505050506200028d565b828054620000819062000250565b90600052602060002090601f016020900481019282620000a55760008555620000f0565b82601f10620000c057805160ff1916838001178555620000f0565b82800160010185558215620000f0579182015b82811115620000f0578251825591602001919060010190620000d3565b50620000fe92915062000102565b5090565b5b80821115620000fe576000815560010162000103565b634e487b7160e01b600052604160045260246000fd5b600082601f8301126200014157600080fd5b81516001600160401b03808211156200015e576200015e62000119565b604051601f8301601f19908116603f0116810190828211818310171562000189576200018962000119565b81604052838152602092508683858801011115620001a657600080fd5b600091505b83821015620001ca5785820183015181830184015290820190620001ab565b83821115620001dc5760008385830101525b9695505050505050565b60008060408385031215620001fa57600080fd5b82516001600160401b03808211156200021257600080fd5b62000220868387016200012f565b935060208501519150808211156200023757600080fd5b5062000246858286016200012f565b9150509250929050565b600181811c908216806200026557607f821691505b602082108114156200028757634e487b7160e01b600052602260045260246000fd5b50919050565b611349806200029d6000396000f3fe608060405234801561001057600080fd5b50600436106100ea5760003560e01c80636a6278421161008c578063a22cb46511610066578063a22cb465146101e1578063b88d4fde146101f4578063c87b56dd14610207578063e985e9c51461021a57600080fd5b80636a627842146101a557806370a08231146101b857806395d89b41146101d957600080fd5b8063095ea7b3116100c8578063095ea7b31461015757806323b872dd1461016c57806342842e0e1461017f5780636352211e1461019257600080fd5b806301ffc9a7146100ef57806306fdde0314610117578063081812fc1461012c575b600080fd5b6101026100fd366004610ecc565b610256565b60405190151581526020015b60405180910390f35b61011f6102a8565b60405161010e9190610f41565b61013f61013a366004610f54565b61033a565b6040516001600160a01b03909116815260200161010e565b61016a610165366004610f89565b610361565b005b61016a61017a366004610fb3565b61047c565b61016a61018d366004610fb3565b610487565b61013f6101a0366004610f54565b6104a2565b61016a6101b3366004610fef565b610502565b6101cb6101c6366004610fef565b61055a565b60405190815260200161010e565b61011f6105e0565b61016a6101ef36600461100a565b6105ef565b61016a61020236600461105c565b6105fe565b61011f610215366004610f54565b61067c565b610102610228366004611138565b6001600160a01b03918216600090815260056020908152604080832093909416825291909152205460ff1690565b60006001600160e01b031982166380ac58cd60e01b148061028757506001600160e01b03198216635b5e139f60e01b145b806102a257506301ffc9a760e01b6001600160e01b03198316145b92915050565b6060600080546102b79061116b565b80601f01602080910402602001604051908101604052809291908181526020018280546102e39061116b565b80156103305780601f1061030557610100808354040283529160200191610330565b820191906000526020600020905b81548152906001019060200180831161031357829003601f168201915b5050505050905090565b6000610345826106e3565b506000908152600460205260409020546001600160a01b031690565b600061036c826104a2565b9050806001600160a01b0316836001600160a01b031614156103df5760405162461bcd60e51b815260206004820152602160248201527f4552433732313a20617070726f76616c20746f2063757272656e74206f776e656044820152603960f91b60648201526084015b60405180910390fd5b336001600160a01b03821614806103fb57506103fb8133610228565b61046d5760405162461bcd60e51b815260206004820152603d60248201527f4552433732313a20617070726f76652063616c6c6572206973206e6f7420746f60448201527f6b656e206f776e6572206f7220617070726f76656420666f7220616c6c00000060648201526084016103d6565b6104778383610745565b505050565b6104778383836107b3565b610477838383604051806020016040528060008152506105fe565b6000818152600260205260408120546001600160a01b0316806102a25760405162461bcd60e51b8152602060048201526018602482015277115490cdcc8c4e881a5b9d985b1a59081d1bdad95b88125160421b60448201526064016103d6565b6006805460009182610513836111a6565b9190505590506105238282610917565b6040518181527ffa1f1c46f96656e5cd3a96cec39616adf4f55f5078c8dc2fbfb9226289a1622d9060200160405180910390a15050565b60006001600160a01b0382166105c45760405162461bcd60e51b815260206004820152602960248201527f4552433732313a2061646472657373207a65726f206973206e6f7420612076616044820152683634b21037bbb732b960b91b60648201526084016103d6565b506001600160a01b031660009081526003602052604090205490565b6060600180546102b79061116b565b6105fa338383610aa2565b5050565b6106083383610b71565b61066a5760405162461bcd60e51b815260206004820152602d60248201527f4552433732313a2063616c6c6572206973206e6f7420746f6b656e206f776e6560448201526c1c881bdc88185c1c1c9bdd9959609a1b60648201526084016103d6565b61067684848484610bf0565b50505050565b6060610687826106e3565b6000610691610c23565b905060008151116106b157604051806020016040528060008152506106dc565b806106bb84610c43565b6040516020016106cc9291906111cf565b6040516020818303038152906040525b9392505050565b6000818152600260205260409020546001600160a01b03166107425760405162461bcd60e51b8152602060048201526018602482015277115490cdcc8c4e881a5b9d985b1a59081d1bdad95b88125160421b60448201526064016103d6565b50565b600081815260046020526040902080546001600160a01b0319166001600160a01b038416908117909155819061077a826104a2565b6001600160a01b03167f8c5be1e5ebec7d5bd14f71427d1e84f3dd0314c0f7b2291e5b200ac8c7c3b92560405160405180910390a45050565b826001600160a01b03166107c6826104a2565b6001600160a01b0316146107ec5760405162461bcd60e51b81526004016103d6906111fe565b6001600160a01b03821661084e5760405162461bcd60e51b8152602060048201526024808201527f4552433732313a207472616e7366657220746f20746865207a65726f206164646044820152637265737360e01b60648201526084016103d6565b826001600160a01b0316610861826104a2565b6001600160a01b0316146108875760405162461bcd60e51b81526004016103d6906111fe565b600081815260046020908152604080832080546001600160a01b03199081169091556001600160a01b0387811680865260038552838620805460001901905590871680865283862080546001019055868652600290945282852080549092168417909155905184937fddf252ad1be2c89b69c2b068fc378daa952ba7f163c4a11628f55a4df523b3ef91a4505050565b6001600160a01b03821661096d5760405162461bcd60e51b815260206004820181905260248201527f4552433732313a206d696e7420746f20746865207a65726f206164647265737360448201526064016103d6565b6000818152600260205260409020546001600160a01b0316156109d25760405162461bcd60e51b815260206004820152601c60248201527f4552433732313a20746f6b656e20616c7265616479206d696e7465640000000060448201526064016103d6565b6000818152600260205260409020546001600160a01b031615610a375760405162461bcd60e51b815260206004820152601c60248201527f4552433732313a20746f6b656e20616c7265616479206d696e7465640000000060448201526064016103d6565b6001600160a01b038216600081815260036020908152604080832080546001019055848352600290915280822080546001600160a01b0319168417905551839291907fddf252ad1be2c89b69c2b068fc378daa952ba7f163c4a11628f55a4df523b3ef908290a45050565b816001600160a01b0316836001600160a01b03161415610b045760405162461bcd60e51b815260206004820152601960248201527f4552433732313a20617070726f766520746f2063616c6c65720000000000000060448201526064016103d6565b6001600160a01b03838116600081815260056020908152604080832094871680845294825291829020805460ff191686151590811790915591519182527f17307eab39ab6107e8899845ad3d59bd9653f200f220920489ca2b5937696c31910160405180910390a3505050565b600080610b7d836104a2565b9050806001600160a01b0316846001600160a01b03161480610bc457506001600160a01b0380821660009081526005602090815260408083209388168352929052205460ff165b80610be85750836001600160a01b0316610bdd8461033a565b6001600160a01b0316145b949350505050565b610bfb8484846107b3565b610c0784848484610ce0565b6106765760405162461bcd60e51b81526004016103d690611243565b60606040518060600160405280602481526020016112f060249139905090565b60606000610c5083610dde565b600101905060008167ffffffffffffffff811115610c7057610c70611046565b6040519080825280601f01601f191660200182016040528015610c9a576020820181803683370190505b5090508181016020015b600019016f181899199a1a9b1b9c1cb0b131b232b360811b600a86061a8153600a8504945084610cd357610cd8565b610ca4565b509392505050565b60006001600160a01b0384163b15610dd357604051630a85bd0160e11b81526001600160a01b0385169063150b7a0290610d24903390899088908890600401611295565b6020604051808303816000875af1925050508015610d5f575060408051601f3d908101601f19168201909252610d5c918101906112d2565b60015b610db9573d808015610d8d576040519150601f19603f3d011682016040523d82523d6000602084013e610d92565b606091505b508051610db15760405162461bcd60e51b81526004016103d690611243565b805181602001fd5b6001600160e01b031916630a85bd0160e11b149050610be8565b506001949350505050565b60008072184f03e93ff9f4daa797ed6e38ed64bf6a1f0160401b8310610e1d5772184f03e93ff9f4daa797ed6e38ed64bf6a1f0160401b830492506040015b6d04ee2d6d415b85acef81000000008310610e49576d04ee2d6d415b85acef8100000000830492506020015b662386f26fc100008310610e6757662386f26fc10000830492506010015b6305f5e1008310610e7f576305f5e100830492506008015b6127108310610e9357612710830492506004015b60648310610ea5576064830492506002015b600a83106102a25760010192915050565b6001600160e01b03198116811461074257600080fd5b600060208284031215610ede57600080fd5b81356106dc81610eb6565b60005b83811015610f04578181015183820152602001610eec565b838111156106765750506000910152565b60008151808452610f2d816020860160208601610ee9565b601f01601f19169290920160200192915050565b6020815260006106dc6020830184610f15565b600060208284031215610f6657600080fd5b5035919050565b80356001600160a01b0381168114610f8457600080fd5b919050565b60008060408385031215610f9c57600080fd5b610fa583610f6d565b946020939093013593505050565b600080600060608486031215610fc857600080fd5b610fd184610f6d565b9250610fdf60208501610f6d565b9150604084013590509250925092565b60006020828403121561100157600080fd5b6106dc82610f6d565b6000806040838503121561101d57600080fd5b61102683610f6d565b91506020830135801515811461103b57600080fd5b809150509250929050565b634e487b7160e01b600052604160045260246000fd5b6000806000806080858703121561107257600080fd5b61107b85610f6d565b935061108960208601610f6d565b925060408501359150606085013567ffffffffffffffff808211156110ad57600080fd5b818701915087601f8301126110c157600080fd5b8135818111156110d3576110d3611046565b604051601f8201601f19908116603f011681019083821181831017156110fb576110fb611046565b816040528281528a602084870101111561111457600080fd5b82602086016020830137600060208483010152809550505050505092959194509250565b6000806040838503121561114b57600080fd5b61115483610f6d565b915061116260208401610f6d565b90509250929050565b600181811c9082168061117f57607f821691505b602082108114156111a057634e487b7160e01b600052602260045260246000fd5b50919050565b60006000198214156111c857634e487b7160e01b600052601160045260246000fd5b5060010190565b600083516111e1818460208801610ee9565b8351908301906111f5818360208801610ee9565b01949350505050565b60208082526025908201527f4552433732313a207472616e736665722066726f6d20696e636f72726563742060408201526437bbb732b960d91b606082015260800190565b60208082526032908201527f4552433732313a207472616e7366657220746f206e6f6e20455243373231526560408201527131b2b4bb32b91034b6b83632b6b2b73a32b960711b606082015260800190565b6001600160a01b03858116825284166020820152604081018390526080606082018190526000906112c890830184610f15565b9695505050505050565b6000602082840312156112e457600080fd5b81516106dc81610eb656fe68747470733a2f2f6170692e6e66742d7368617265732f6e66742f6d657461646174612fa2646970667358221220e8edaf4262fa55be03b20cc6f44c767ac5118280a6bfbbdaf7beee5718cc472764736f6c634300080c0033a2646970667358221220d90764cf0fcda4a3784c59b91e684b0462069968e2269df6417f954785d91e1564736f6c634300080c0033",
  "devdoc": {
    "kind": "dev",
    "methods": {},
    "version": 1
  },
  "userdoc": {
    "kind": "user",
    "methods": {},
    "version": 1
  },
  "storageLayout": {
    "storage": [],
    "types": null
  }
}