{
  "address": "0xc5CE1D5C9f4fc8e8dD807016002de90684484184",
  "abi": [
    {
      "anonymous": false,
      "inputs": [
        {
          "indexed": false,
          "internalType": "address",
          "name": "fnft",
          "type": "address"
        }
      ],
      "name": "CollectionFNFTCreated",
      "type": "event"
    },
    {
      "anonymous": false,
      "inputs": [
        {
          "indexed": false,
          "internalType": "address",
          "name": "fnft",
          "type": "address"
        }
      ],
      "name": "SingleFNFTCreated",
      "type": "event"
    },
    {
      "inputs": [
        {
          "internalType": "string",
          "name": "name",
          "type": "string"
        },
        {
          "internalType": "string",
          "name": "symbol",
          "type": "string"
        },
        {
          "internalType": "uint256",
          "name": "totalSupply",
          "type": "uint256"
        },
        {
          "internalType": "contract ERC721[]",
          "name": "nft",
          "type": "address[]"
        },
        {
          "internalType": "uint256[]",
          "name": "ids",
          "type": "uint256[]"
        }
      ],
      "name": "createCollection",
      "outputs": [],
      "stateMutability": "nonpayable",
      "type": "function"
    },
    {
      "inputs": [
        {
          "internalType": "contract ERC721",
          "name": "token",
          "type": "address"
        },
        {
          "internalType": "uint256",
          "name": "tokenId",
          "type": "uint256"
        },
        {
          "internalType": "string",
          "name": "name",
          "type": "string"
        },
        {
          "internalType": "string",
          "name": "symbol",
          "type": "string"
        },
        {
          "internalType": "uint256",
          "name": "totalSupply",
          "type": "uint256"
        }
      ],
      "name": "createSingle",
      "outputs": [],
      "stateMutability": "nonpayable",
      "type": "function"
    }
  ],
  "transactionHash": "0xefda74bed1e898de28c4c9e37c7107af72d1c1bd184fda4529a4eee239b3ae87",
  "args": [],
  "numDeployments": 3,
  "solcInputHash": "6baf67e12ed75f60db05fc5da7225086",
  "bytecode": "0x608060405234801561001057600080fd5b506132b4806100206000396000f3fe60806040523480156200001157600080fd5b50600436106200003a5760003560e01c8063120be680146200003f578063c0ebf3fd1462000058575b600080fd5b620000566200005036600462000312565b6200006f565b005b620000566200006936600462000437565b620000fc565b600085853386868660405162000085906200017e565b620000969695949392919062000553565b604051809103906000f080158015620000b3573d6000803e3d6000fd5b506040516001600160a01b03821681529091507f1f6a83eaafd0e8aaba4e00136e1bb73b68326e521b4ff9e2facde498b2f51fe0906020015b60405180910390a1505050505050565b600085858585338660405162000112906200018c565b6200012396959493929190620005f4565b604051809103906000f08015801562000140573d6000803e3d6000fd5b506040516001600160a01b03821681529091507f082cc60837ccddf28ff1b1a9adddcf0c1284ed3b468fae23367b30ece58c080b90602001620000ec565b611cb3806200064a83390190565b610f8280620022fd83390190565b634e487b7160e01b600052604160045260246000fd5b604051601f8201601f1916810167ffffffffffffffff81118282101715620001dc57620001dc6200019a565b604052919050565b600082601f830112620001f657600080fd5b813567ffffffffffffffff8111156200021357620002136200019a565b62000228601f8201601f1916602001620001b0565b8181528460208386010111156200023e57600080fd5b816020850160208301376000918101602001919091529392505050565b600067ffffffffffffffff8211156200027857620002786200019a565b5060051b60200190565b80356001600160a01b03811681146200029a57600080fd5b919050565b600082601f830112620002b157600080fd5b81356020620002ca620002c4836200025b565b620001b0565b82815260059290921b84018101918181019086841115620002ea57600080fd5b8286015b84811015620003075780358352918301918301620002ee565b509695505050505050565b600080600080600060a086880312156200032b57600080fd5b853567ffffffffffffffff808211156200034457600080fd5b6200035289838a01620001e4565b96506020915081880135818111156200036a57600080fd5b620003788a828b01620001e4565b965050604088013594506060880135818111156200039557600080fd5b8801601f81018a13620003a757600080fd5b8035620003b8620002c4826200025b565b81815260059190911b8201840190848101908c831115620003d857600080fd5b928501925b828410156200040157620003f18462000282565b82529285019290850190620003dd565b965050505060808801359150808211156200041b57600080fd5b506200042a888289016200029f565b9150509295509295909350565b600080600080600060a086880312156200045057600080fd5b6200045b8662000282565b945060208601359350604086013567ffffffffffffffff808211156200048057600080fd5b6200048e89838a01620001e4565b94506060880135915080821115620004a557600080fd5b50620004b488828901620001e4565b95989497509295608001359392505050565b6000815180845260005b81811015620004ee57602081850181015186830182015201620004d0565b8181111562000501576000602083870101525b50601f01601f19169290920160200192915050565b600081518084526020808501945080840160005b8381101562000548578151875295820195908201906001016200052a565b509495945050505050565b60c0815260006200056860c0830189620004c6565b6020838203818501526200057d828a620004c6565b6001600160a01b03898116604087015260608601899052858203608087015287518083528389019450909183019060005b81811015620005ce578551841683529484019491840191600101620005ae565b505085810360a0870152620005e4818862000516565b9c9b505050505050505050505050565b600060018060a01b03808916835287602084015260c060408401526200061e60c0840188620004c6565b8381036060850152620006328188620004c6565b959091166080840152505060a0015294935050505056fe60806040523480156200001157600080fd5b5060405162001cb338038062001cb383398101604081905262000034916200055c565b8551869086906200004d906003906020850190620002a7565b50805162000063906004906020840190620002a7565b5050600c80546001600160a01b0319166001600160a01b038716179055508051825114620000f25760405162461bcd60e51b815260206004820152603160248201527f464e4654436f6c6c656374696f6e3a206e66747320616e6420746f6b656e49646044820152700e640d8cadccee8d040dad2e6dac2e8c6d607b1b60648201526084015b60405180910390fd5b60005b8251811015620001cb5782818151811062000114576200011462000630565b60200260200101516001600160a01b03166323b872dd863085858151811062000141576200014162000630565b60209081029190910101516040516001600160e01b031960e086901b1681526001600160a01b0393841660048201529290911660248301526044820152606401600060405180830381600087803b1580156200019c57600080fd5b505af1158015620001b1573d6000803e3d6000fd5b505050508080620001c2906200065c565b915050620000f5565b50620001d88484620001e4565b505050505050620006d2565b6001600160a01b0382166200023c5760405162461bcd60e51b815260206004820152601f60248201527f45524332303a206d696e7420746f20746865207a65726f2061646472657373006044820152606401620000e9565b80600260008282546200025091906200067a565b90915550506001600160a01b038216600081815260208181526040808320805486019055518481527fddf252ad1be2c89b69c2b068fc378daa952ba7f163c4a11628f55a4df523b3ef910160405180910390a35050565b828054620002b59062000695565b90600052602060002090601f016020900481019282620002d9576000855562000324565b82601f10620002f457805160ff191683800117855562000324565b8280016001018555821562000324579182015b828111156200032457825182559160200191906001019062000307565b506200033292915062000336565b5090565b5b8082111562000332576000815560010162000337565b634e487b7160e01b600052604160045260246000fd5b604051601f8201601f191681016001600160401b03811182821017156200038e576200038e6200034d565b604052919050565b600082601f830112620003a857600080fd5b81516001600160401b03811115620003c457620003c46200034d565b6020620003da601f8301601f1916820162000363565b8281528582848701011115620003ef57600080fd5b60005b838110156200040f578581018301518282018401528201620003f2565b83811115620004215760008385840101525b5095945050505050565b6001600160a01b03811681146200044157600080fd5b50565b805162000451816200042b565b919050565b60006001600160401b038211156200047257620004726200034d565b5060051b60200190565b600082601f8301126200048e57600080fd5b81516020620004a7620004a18362000456565b62000363565b82815260059290921b84018101918181019086841115620004c757600080fd5b8286015b84811015620004ef578051620004e1816200042b565b8352918301918301620004cb565b509695505050505050565b600082601f8301126200050c57600080fd5b815160206200051f620004a18362000456565b82815260059290921b840181019181810190868411156200053f57600080fd5b8286015b84811015620004ef578051835291830191830162000543565b60008060008060008060c087890312156200057657600080fd5b86516001600160401b03808211156200058e57600080fd5b6200059c8a838b0162000396565b97506020890151915080821115620005b357600080fd5b620005c18a838b0162000396565b9650620005d160408a0162000444565b9550606089015194506080890151915080821115620005ef57600080fd5b620005fd8a838b016200047c565b935060a08901519150808211156200061457600080fd5b506200062389828a01620004fa565b9150509295509295509295565b634e487b7160e01b600052603260045260246000fd5b634e487b7160e01b600052601160045260246000fd5b600060001982141562000673576200067362000646565b5060010190565b6000821982111562000690576200069062000646565b500190565b600181811c90821680620006aa57607f821691505b60208210811415620006cc57634e487b7160e01b600052602260045260246000fd5b50919050565b6115d180620006e26000396000f3fe608060405234801561001057600080fd5b506004361061012c5760003560e01c806377b62680116100ad578063a9059cbb11610071578063a9059cbb1461027f578063b210797114610292578063bfa5f3cd146102a5578063dd62ed3e146102b8578063e4048315146102cb57600080fd5b806377b62680146102355780637943fc801461023e578063929ec5371461025157806395d89b4114610264578063a457c2d71461026c57600080fd5b8063265aa621116100f4578063265aa621146101c2578063313ce567146101d557806336b79ae0146101e457806339509351146101f957806370a082311461020c57600080fd5b806306fdde0314610131578063075461721461014f578063095ea7b31461017a57806318160ddd1461019d57806323b872dd146101af575b600080fd5b6101396102de565b604051610146919061122f565b60405180910390f35b600c54610162906001600160a01b031681565b6040516001600160a01b039091168152602001610146565b61018d61018836600461129c565b610370565b6040519015158152602001610146565b6002545b604051908152602001610146565b61018d6101bd3660046112c8565b610388565b6101626101d0366004611309565b6103ac565b60405160128152602001610146565b6101f76101f2366004611322565b6103d6565b005b61018d61020736600461129c565b6105eb565b6101a161021a36600461136f565b6001600160a01b031660009081526020819052604090205490565b6101a160055481565b6101f761024c366004611393565b61060d565b6101a161025f36600461136f565b610699565b610139610737565b61018d61027a36600461129c565b610746565b61018d61028d36600461129c565b6107c1565b6101f76102a036600461129c565b6107cf565b6101f76102b336600461129c565b6107f4565b6101a16102c63660046113c8565b61087b565b6101f76102d9366004611393565b6108a6565b6060600380546102ed90611401565b80601f016020809104026020016040519081016040528092919081815260200182805461031990611401565b80156103665780601f1061033b57610100808354040283529160200191610366565b820191906000526020600020905b81548152906001019060200180831161034957829003601f168201915b5050505050905090565b60003361037e818585610981565b5060019392505050565b600033610396858285610aa5565b6103a1858585610b1f565b506001949350505050565b600a81815481106103bc57600080fd5b6000918252602090912001546001600160a01b0316905081565b33600081815260208181526040808320546001600160a01b03891684526007835281842088855283528184205480855260098452828520868652600685528386208287529094529184205490949193909161043090610699565b9050600061043e8287611452565b600685015490915060ff161561048e5760405162461bcd60e51b815260206004820152601060248201526f14dd589a9958dd081a5cc8195b99195960821b60448201526064015b60405180910390fd5b806104998885611452565b11156104dc5760405162461bcd60e51b81526020600482015260126024820152714e6f7420656e6f7567682062616c616e636560701b6044820152606401610485565b336000908152600660209081526040808320888452909152812054610502908990611452565b90508060066000336001600160a01b03166001600160a01b031681526020019081526020016000206000888152602001908152602001600020600001819055507fbd6f08c342216ecaddd78dc5d11e78ff871171d9b6348a61ff341cac2501f35e86338b8b8960000160009054906101000a90046001600160a01b03168a600101548b60020160009054906101000a900460ff168c60020160019054906101000a90046001600160a01b03168d600301548e600401548f600501548c6040516105d69c9b9a99989796959493929190611480565b60405180910390a15050505050505050505050565b60003361037e8185856105fe838361087b565b6106089190611452565b610981565b610618333083610388565b50600c5460009061063990859085906001906001600160a01b031686610cc3565b604080518281526001600160a01b0387166020820152908101859052336060820152608081018490529091507f9c8f0d171d0fcedb83a0185c399385e38bfc9c026379717c1b8bd580082331789060a0015b60405180910390a150505050565b600080805b600854811015610730576001600160a01b038416600090815260066020526040812060088054839190859081106106d7576106d761151b565b60009182526020808320909101548352828101939093526040918201902081519283019091525480825290915061070e575061071e565b805161071a9084611452565b9250505b8061072881611531565b91505061069e565b5092915050565b6060600480546102ed90611401565b60003381610754828661087b565b9050838110156107b45760405162461bcd60e51b815260206004820152602560248201527f45524332303a2064656372656173656420616c6c6f77616e63652062656c6f77604482015264207a65726f60d81b6064820152608401610485565b6103a18286868403610981565b60003361037e818585610b1f565b60006107db8383610d85565b90506107ef81606001518260800151610f04565b505050565b60006108008383610d85565b9050610810308260800151610fc3565b6040516323b872dd60e01b8152306004820152336024820152604481018390526001600160a01b038416906323b872dd90606401600060405180830381600087803b15801561085e57600080fd5b505af1158015610872573d6000803e3d6000fd5b50505050505050565b6001600160a01b03918216600090815260016020908152604080832093909416825291909152205490565b6040516323b872dd60e01b8152336004820152306024820152604481018390526001600160a01b038416906323b872dd90606401600060405180830381600087803b1580156108f457600080fd5b505af1158015610908573d6000803e3d6000fd5b5050600c546000925061092b91508590859084906001600160a01b031686610cc3565b604080518281526001600160a01b0387166020820152908101859052336060820152608081018490529091507fc6ef70d851c242e5c6ac08c0b0a4de649c51d5c641e63f62754d21bba601c02f9060a00161068b565b6001600160a01b0383166109e35760405162461bcd60e51b8152602060048201526024808201527f45524332303a20617070726f76652066726f6d20746865207a65726f206164646044820152637265737360e01b6064820152608401610485565b6001600160a01b038216610a445760405162461bcd60e51b815260206004820152602260248201527f45524332303a20617070726f766520746f20746865207a65726f206164647265604482015261737360f01b6064820152608401610485565b6001600160a01b0383811660008181526001602090815260408083209487168084529482529182902085905590518481527f8c5be1e5ebec7d5bd14f71427d1e84f3dd0314c0f7b2291e5b200ac8c7c3b925910160405180910390a3505050565b6000610ab1848461087b565b90506000198114610b195781811015610b0c5760405162461bcd60e51b815260206004820152601d60248201527f45524332303a20696e73756666696369656e7420616c6c6f77616e63650000006044820152606401610485565b610b198484848403610981565b50505050565b6001600160a01b038316610b835760405162461bcd60e51b815260206004820152602560248201527f45524332303a207472616e736665722066726f6d20746865207a65726f206164604482015264647265737360d81b6064820152608401610485565b6001600160a01b038216610be55760405162461bcd60e51b815260206004820152602360248201527f45524332303a207472616e7366657220746f20746865207a65726f206164647260448201526265737360e81b6064820152608401610485565b6001600160a01b03831660009081526020819052604090205481811015610c5d5760405162461bcd60e51b815260206004820152602660248201527f45524332303a207472616e7366657220616d6f756e7420657863656564732062604482015265616c616e636560d01b6064820152608401610485565b6001600160a01b03848116600081815260208181526040808320878703905593871680835291849020805487019055925185815290927fddf252ad1be2c89b69c2b068fc378daa952ba7f163c4a11628f55a4df523b3ef910160405180910390a3610b19565b600080610cce6110f5565b6001600160a01b03881660008181526007602090815260408083208b845282528083208590558483526009909152902080546001600160a01b03191690911781556001808201899055600290910180549293508792909160ff19909116908381811115610d3d57610d3d61146a565b021790555060008181526009602052604090206002810180546001600160a01b03871661010002610100600160a81b0319909116179055600301839055905095945050505050565b604080516101008101825260008082526020808301829052828401829052606083018290526080830182905260a0830182905260c0830182905260e083018290526001600160a01b038616825260078152838220858352815283822054808352600990915292902060028054929392610dfe919061154c565b81600401541015610e445760405162461bcd60e51b815260206004820152601060248201526f4e6f7420656e6f75676820766f74657360801b6044820152606401610485565b60068101805460ff19166001179055610e5c82611147565b604080516101008101825282546001600160a01b0316815260018084015460208301526002840154919284929084019160ff90911690811115610ea157610ea161146a565b6001811115610eb257610eb261146a565b8152600282015461010090046001600160a01b0316602082015260038201546040820152600482015460608201526005820154608082015260069091015460ff16151560a09091015295945050505050565b6001600160a01b038216610f5a5760405162461bcd60e51b815260206004820152601f60248201527f45524332303a206d696e7420746f20746865207a65726f2061646472657373006044820152606401610485565b8060026000828254610f6c9190611452565b90915550506001600160a01b038216600081815260208181526040808320805486019055518481527fddf252ad1be2c89b69c2b068fc378daa952ba7f163c4a11628f55a4df523b3ef910160405180910390a35050565b6001600160a01b0382166110235760405162461bcd60e51b815260206004820152602160248201527f45524332303a206275726e2066726f6d20746865207a65726f206164647265736044820152607360f81b6064820152608401610485565b6001600160a01b038216600090815260208190526040902054818110156110975760405162461bcd60e51b815260206004820152602260248201527f45524332303a206275726e20616d6f756e7420657863656564732062616c616e604482015261636560f01b6064820152608401610485565b6001600160a01b0383166000818152602081815260408083208686039055600280548790039055518581529192917fddf252ad1be2c89b69c2b068fc378daa952ba7f163c4a11628f55a4df523b3ef910160405180910390a3505050565b60008060056000815461110790611531565b9182905550600880546001810182556000919091527ff3f7a9fe364faab93b216da50a3214154f22a0a2b415b23a84c8169e8b636ee30181905592915050565b6000805b6008548110156112035782600882815481106111695761116961151b565b906000526020600020015414156111a15760019150600881815481106111915761119161151b565b60009182526020822001556111f1565b81156111f157600881815481106111ba576111ba61151b565b906000526020600020015460086001836111d4919061156e565b815481106111e4576111e461151b565b6000918252602090912001555b806111fb81611531565b91505061114b565b50600880548061121557611215611585565b600190038181906000526020600020016000905590555050565b600060208083528351808285015260005b8181101561125c57858101830151858201604001528201611240565b8181111561126e576000604083870101525b50601f01601f1916929092016040019392505050565b6001600160a01b038116811461129957600080fd5b50565b600080604083850312156112af57600080fd5b82356112ba81611284565b946020939093013593505050565b6000806000606084860312156112dd57600080fd5b83356112e881611284565b925060208401356112f881611284565b929592945050506040919091013590565b60006020828403121561131b57600080fd5b5035919050565b6000806000806080858703121561133857600080fd5b843561134381611284565b9350602085013592506040850135801515811461135f57600080fd5b9396929550929360600135925050565b60006020828403121561138157600080fd5b813561138c81611284565b9392505050565b6000806000606084860312156113a857600080fd5b83356113b381611284565b95602085013595506040909401359392505050565b600080604083850312156113db57600080fd5b82356113e681611284565b915060208301356113f681611284565b809150509250929050565b600181811c9082168061141557607f821691505b6020821081141561143657634e487b7160e01b600052602260045260246000fd5b50919050565b634e487b7160e01b600052601160045260246000fd5b600082198211156114655761146561143c565b500190565b634e487b7160e01b600052602160045260246000fd5b8c81526001600160a01b038c811660208301528b15156040830152606082018b90528916608082015260a081018890526101808101600288106114d357634e487b7160e01b600052602160045260246000fd5b8760c08301526114ee60e08301886001600160a01b03169052565b856101008301528461012083015283610140830152826101608301529d9c50505050505050505050505050565b634e487b7160e01b600052603260045260246000fd5b60006000198214156115455761154561143c565b5060010190565b60008261156957634e487b7160e01b600052601260045260246000fd5b500490565b6000828210156115805761158061143c565b500390565b634e487b7160e01b600052603160045260246000fdfea26469706673582212207a01739f69de66dab67206d38912d04f5e725757061606ee5ebfd9941662db1264736f6c634300080c003360806040523480156200001157600080fd5b5060405162000f8238038062000f8283398101604081905262000034916200036c565b8351849084906200004d906003906020850190620001e0565b50805162000063906004906020840190620001e0565b5050600580546001600160a01b03199081166001600160a01b038a81169182179093556006899055600780549092169286169283179091556040516323b872dd60e01b815260048101929092523060248301526044820188905291506323b872dd90606401600060405180830381600087803b158015620000e357600080fd5b505af1158015620000f8573d6000803e3d6000fd5b505050506200010e82826200011a60201b60201c565b50505050505062000478565b6001600160a01b038216620001755760405162461bcd60e51b815260206004820152601f60248201527f45524332303a206d696e7420746f20746865207a65726f206164647265737300604482015260640160405180910390fd5b806002600082825462000189919062000414565b90915550506001600160a01b038216600081815260208181526040808320805486019055518481527fddf252ad1be2c89b69c2b068fc378daa952ba7f163c4a11628f55a4df523b3ef910160405180910390a35050565b828054620001ee906200043b565b90600052602060002090601f0160209004810192826200021257600085556200025d565b82601f106200022d57805160ff19168380011785556200025d565b828001600101855582156200025d579182015b828111156200025d57825182559160200191906001019062000240565b506200026b9291506200026f565b5090565b5b808211156200026b576000815560010162000270565b6001600160a01b03811681146200029c57600080fd5b50565b634e487b7160e01b600052604160045260246000fd5b600082601f830112620002c757600080fd5b81516001600160401b0380821115620002e457620002e46200029f565b604051601f8301601f19908116603f011681019082821181831017156200030f576200030f6200029f565b816040528381526020925086838588010111156200032c57600080fd5b600091505b8382101562000350578582018301518183018401529082019062000331565b83821115620003625760008385830101525b9695505050505050565b60008060008060008060c087890312156200038657600080fd5b8651620003938162000286565b6020880151604089015191975095506001600160401b0380821115620003b857600080fd5b620003c68a838b01620002b5565b95506060890151915080821115620003dd57600080fd5b50620003ec89828a01620002b5565b9350506080870151620003ff8162000286565b8092505060a087015190509295509295509295565b600082198211156200043657634e487b7160e01b600052601160045260246000fd5b500190565b600181811c908216806200045057607f821691505b602082108114156200047257634e487b7160e01b600052602260045260246000fd5b50919050565b610afa80620004886000396000f3fe608060405234801561001057600080fd5b50600436106100f55760003560e01c80633950935111610097578063a457c2d711610066578063a457c2d7146101fe578063a9059cbb14610211578063be040fb014610224578063dd62ed3e1461022e57600080fd5b806339509351146101a757806347ccca02146101ba57806370a08231146101cd57806395d89b41146101f657600080fd5b806317d70f7c116100d357806317d70f7c1461016657806318160ddd1461017d57806323b872dd14610185578063313ce5671461019857600080fd5b806306fdde03146100fa5780630754617214610118578063095ea7b314610143575b600080fd5b610102610241565b60405161010f9190610937565b60405180910390f35b60075461012b906001600160a01b031681565b6040516001600160a01b03909116815260200161010f565b6101566101513660046109a8565b6102d3565b604051901515815260200161010f565b61016f60065481565b60405190815260200161010f565b60025461016f565b6101566101933660046109d2565b6102eb565b6040516012815260200161010f565b6101566101b53660046109a8565b61030f565b60055461012b906001600160a01b031681565b61016f6101db366004610a0e565b6001600160a01b031660009081526020819052604090205490565b610102610331565b61015661020c3660046109a8565b610340565b61015661021f3660046109a8565b6103c0565b61022c6103ce565b005b61016f61023c366004610a30565b6104a5565b60606003805461025090610a63565b80601f016020809104026020016040519081016040528092919081815260200182805461027c90610a63565b80156102c95780601f1061029e576101008083540402835291602001916102c9565b820191906000526020600020905b8154815290600101906020018083116102ac57829003601f168201915b5050505050905090565b6000336102e18185856104d0565b5060019392505050565b6000336102f98582856105f5565b610304858585610669565b506001949350505050565b6000336102e181858561032283836104a5565b61032c9190610a9e565b6104d0565b60606004805461025090610a63565b6000338161034e82866104a5565b9050838110156103b35760405162461bcd60e51b815260206004820152602560248201527f45524332303a2064656372656173656420616c6c6f77616e63652062656c6f77604482015264207a65726f60d81b60648201526084015b60405180910390fd5b61030482868684036104d0565b6000336102e1818585610669565b60025433600090815260208190526040902054146104235760405162461bcd60e51b81526020600482015260126024820152714e6f7420656e6f7567682062616c616e636560701b60448201526064016103aa565b6104353361043060025490565b61080d565b6005546006546040516323b872dd60e01b815230600482015233602482015260448101919091526001600160a01b03909116906323b872dd90606401600060405180830381600087803b15801561048b57600080fd5b505af115801561049f573d6000803e3d6000fd5b50505050565b6001600160a01b03918216600090815260016020908152604080832093909416825291909152205490565b6001600160a01b0383166105325760405162461bcd60e51b8152602060048201526024808201527f45524332303a20617070726f76652066726f6d20746865207a65726f206164646044820152637265737360e01b60648201526084016103aa565b6001600160a01b0382166105935760405162461bcd60e51b815260206004820152602260248201527f45524332303a20617070726f766520746f20746865207a65726f206164647265604482015261737360f01b60648201526084016103aa565b6001600160a01b0383811660008181526001602090815260408083209487168084529482529182902085905590518481527f8c5be1e5ebec7d5bd14f71427d1e84f3dd0314c0f7b2291e5b200ac8c7c3b92591015b60405180910390a3505050565b600061060184846104a5565b9050600019811461049f578181101561065c5760405162461bcd60e51b815260206004820152601d60248201527f45524332303a20696e73756666696369656e7420616c6c6f77616e636500000060448201526064016103aa565b61049f84848484036104d0565b6001600160a01b0383166106cd5760405162461bcd60e51b815260206004820152602560248201527f45524332303a207472616e736665722066726f6d20746865207a65726f206164604482015264647265737360d81b60648201526084016103aa565b6001600160a01b03821661072f5760405162461bcd60e51b815260206004820152602360248201527f45524332303a207472616e7366657220746f20746865207a65726f206164647260448201526265737360e81b60648201526084016103aa565b6001600160a01b038316600090815260208190526040902054818110156107a75760405162461bcd60e51b815260206004820152602660248201527f45524332303a207472616e7366657220616d6f756e7420657863656564732062604482015265616c616e636560d01b60648201526084016103aa565b6001600160a01b03848116600081815260208181526040808320878703905593871680835291849020805487019055925185815290927fddf252ad1be2c89b69c2b068fc378daa952ba7f163c4a11628f55a4df523b3ef910160405180910390a361049f565b6001600160a01b03821661086d5760405162461bcd60e51b815260206004820152602160248201527f45524332303a206275726e2066726f6d20746865207a65726f206164647265736044820152607360f81b60648201526084016103aa565b6001600160a01b038216600090815260208190526040902054818110156108e15760405162461bcd60e51b815260206004820152602260248201527f45524332303a206275726e20616d6f756e7420657863656564732062616c616e604482015261636560f01b60648201526084016103aa565b6001600160a01b0383166000818152602081815260408083208686039055600280548790039055518581529192917fddf252ad1be2c89b69c2b068fc378daa952ba7f163c4a11628f55a4df523b3ef91016105e8565b600060208083528351808285015260005b8181101561096457858101830151858201604001528201610948565b81811115610976576000604083870101525b50601f01601f1916929092016040019392505050565b80356001600160a01b03811681146109a357600080fd5b919050565b600080604083850312156109bb57600080fd5b6109c48361098c565b946020939093013593505050565b6000806000606084860312156109e757600080fd5b6109f08461098c565b92506109fe6020850161098c565b9150604084013590509250925092565b600060208284031215610a2057600080fd5b610a298261098c565b9392505050565b60008060408385031215610a4357600080fd5b610a4c8361098c565b9150610a5a6020840161098c565b90509250929050565b600181811c90821680610a7757607f821691505b60208210811415610a9857634e487b7160e01b600052602260045260246000fd5b50919050565b60008219821115610abf57634e487b7160e01b600052601160045260246000fd5b50019056fea2646970667358221220acd96ad4834b5ba60397dec45942df4d6eca25dd6d67807a3b9f31891f54ebe164736f6c634300080c0033a26469706673582212209df00d67cd00c21282b5eb6b8b9cb952a5ee00b8fa9fc1937b721ad7dfb655a164736f6c634300080c0033",
  "devdoc": {
    "kind": "dev",
    "methods": {},
    "version": 1
  },
  "userdoc": {
    "kind": "user",
    "methods": {},
    "version": 1
  },
  "storageLayout": {
    "storage": [],
    "types": null
  }
}