{
  "address": "0x94b3812A65486360382a699Cd55c993798528D3F",
  "abi": [
    {
      "inputs": [
        {
          "internalType": "contract ERC20",
          "name": "fnft",
          "type": "address"
        },
        {
          "internalType": "uint256",
          "name": "amount",
          "type": "uint256"
        },
        {
          "internalType": "uint256",
          "name": "price",
          "type": "uint256"
        }
      ],
      "name": "create",
      "outputs": [
        {
          "internalType": "contract IFO",
          "name": "",
          "type": "address"
        }
      ],
      "stateMutability": "nonpayable",
      "type": "function"
    },
    {
      "inputs": [
        {
          "internalType": "contract ERC20",
          "name": "",
          "type": "address"
        }
      ],
      "name": "ifos",
      "outputs": [
        {
          "internalType": "contract IFO",
          "name": "",
          "type": "address"
        }
      ],
      "stateMutability": "view",
      "type": "function"
    }
  ],
  "transactionHash": "0xc2385ba344e996a017f47fcb3450413a76c19ea4dbae1ce72b7d79f9277dd862",
  "args": [],
  "numDeployments": 4,
  "solcInputHash": "044ecf6476adf4d77d9e1be4419413cc",
  "bytecode": "0x608060405234801561001057600080fd5b50610ba5806100206000396000f3fe608060405234801561001057600080fd5b50600436106100365760003560e01c80633154782f1461003b5780635165da3014610080575b600080fd5b6100646100493660046101ca565b6000602081905290815260409020546001600160a01b031681565b6040516001600160a01b03909116815260200160405180910390f35b61006461008e3660046101ec565b6000833384846040516100a0906101a1565b6001600160a01b03948516815293909216602084015260408301526060820152608001604051809103906000f0801580156100df573d6000803e3d6000fd5b506001600160a01b038581166000818152602081905260409081902080546001600160a01b0319169490931693841790925590516323b872dd60e01b8152336004820152602481019290925260448201859052906323b872dd906064016020604051808303816000875af115801561015b573d6000803e3d6000fd5b505050506040513d601f19601f8201168201806040525081019061017f919061021f565b505050506001600160a01b039081166000908152602081905260409020541690565b61092e8061024283390190565b80356001600160a01b03811681146101c557600080fd5b919050565b6000602082840312156101dc57600080fd5b6101e5826101ae565b9392505050565b60008060006060848603121561020157600080fd5b61020a846101ae565b95602085013595506040909401359392505050565b60006020828403121561023157600080fd5b815180151581146101e557600080fdfe608060405234801561001057600080fd5b5060405161092e38038061092e83398101604081905261002f916101ba565b6100383361007b565b610041836100cb565b600180546001600160a01b0319166001600160a01b03959095169490941784556002556003805460ff191690931790925550600555610202565b600080546001600160a01b038381166001600160a01b0319831681178455604051919092169283917f8be0079c531659141344cd1fd0a4f28419497f9722a3daafe3b4186f6b6457e09190a35050565b6100d3610149565b6001600160a01b03811661013d5760405162461bcd60e51b815260206004820152602660248201527f4f776e61626c653a206e6577206f776e657220697320746865207a65726f206160448201526564647265737360d01b60648201526084015b60405180910390fd5b6101468161007b565b50565b6000546001600160a01b031633146101a35760405162461bcd60e51b815260206004820181905260248201527f4f776e61626c653a2063616c6c6572206973206e6f7420746865206f776e65726044820152606401610134565b565b6001600160a01b038116811461014657600080fd5b600080600080608085870312156101d057600080fd5b84516101db816101a5565b60208601519094506101ec816101a5565b6040860151606090960151949790965092505050565b61071d806102116000396000f3fe6080604052600436106100915760003560e01c8063a035b1fe11610059578063a035b1fe14610147578063a6f2ae3a1461015d578063aace52fe14610165578063f2fde38b1461017b578063fb81a8b51461019b57600080fd5b806307da68f514610096578063715018a6146100ad5780637ab13ba9146100c25780638da5cb5b146100f1578063953b8fb814610123575b600080fd5b3480156100a257600080fd5b506100ab6101bb565b005b3480156100b957600080fd5b506100ab6102e4565b3480156100ce57600080fd5b506003546100dc9060ff1681565b60405190151581526020015b60405180910390f35b3480156100fd57600080fd5b506000546001600160a01b03165b6040516001600160a01b0390911681526020016100e8565b34801561012f57600080fd5b5061013960055481565b6040519081526020016100e8565b34801561015357600080fd5b5061013960025481565b6100ab6102f8565b34801561017157600080fd5b5061013960045481565b34801561018757600080fd5b506100ab61019636600461060d565b6104ed565b3480156101a757600080fd5b5060015461010b906001600160a01b031681565b6101c3610563565b6003805460ff191690556001546040516370a0823160e01b81523060048201526001600160a01b039091169063a9059cbb90339083906370a0823190602401602060405180830381865afa15801561021f573d6000803e3d6000fd5b505050506040513d601f19601f82011682018060405250810190610243919061063d565b6040516001600160e01b031960e085901b1681526001600160a01b03909216600483015260248201526044016020604051808303816000875af115801561028e573d6000803e3d6000fd5b505050506040513d601f19601f820116820180604052508101906102b29190610656565b50600454604051339180156108fc02916000818181858888f193505050501580156102e1573d6000803e3d6000fd5b50565b6102ec610563565b6102f660006105bd565b565b60035460ff166103455760405162461bcd60e51b815260206004820152601360248201527249464f206973206e6f742070726f677265737360681b60448201526064015b60405180910390fd5b60025434101561038a5760405162461bcd60e51b815260206004820152601060248201526f4e6f7420656e6f75676820707269636560801b604482015260640161033c565b60006002543461039a919061068e565b6103ac90670de0b6b3a76400006106b0565b6001546040516370a0823160e01b81523060048201529192506001600160a01b0316906370a0823190602401602060405180830381865afa1580156103f5573d6000803e3d6000fd5b505050506040513d601f19601f82011682018060405250810190610419919061063d565b81111561045d5760405162461bcd60e51b81526020600482015260126024820152714e6f7420656e6f7567682062616c616e636560701b604482015260640161033c565b60015460405163a9059cbb60e01b8152336004820152602481018390526001600160a01b039091169063a9059cbb906044016020604051808303816000875af11580156104ae573d6000803e3d6000fd5b505050506040513d601f19601f820116820180604052508101906104d29190610656565b5034600460008282546104e591906106cf565b909155505050565b6104f5610563565b6001600160a01b03811661055a5760405162461bcd60e51b815260206004820152602660248201527f4f776e61626c653a206e6577206f776e657220697320746865207a65726f206160448201526564647265737360d01b606482015260840161033c565b6102e1816105bd565b6000546001600160a01b031633146102f65760405162461bcd60e51b815260206004820181905260248201527f4f776e61626c653a2063616c6c6572206973206e6f7420746865206f776e6572604482015260640161033c565b600080546001600160a01b038381166001600160a01b0319831681178455604051919092169283917f8be0079c531659141344cd1fd0a4f28419497f9722a3daafe3b4186f6b6457e09190a35050565b60006020828403121561061f57600080fd5b81356001600160a01b038116811461063657600080fd5b9392505050565b60006020828403121561064f57600080fd5b5051919050565b60006020828403121561066857600080fd5b8151801515811461063657600080fd5b634e487b7160e01b600052601160045260246000fd5b6000826106ab57634e487b7160e01b600052601260045260246000fd5b500490565b60008160001904831182151516156106ca576106ca610678565b500290565b600082198211156106e2576106e2610678565b50019056fea2646970667358221220c77828f61e89de8fe904dcd2d8c85daf158956f8871f7754661e76fc46c85ff164736f6c634300080c0033a26469706673582212204c8d3aebd278c0d32a205fa48450e020c3e12062d8945b09f660ff10ec2cf4c364736f6c634300080c0033",
  "devdoc": {
    "kind": "dev",
    "methods": {},
    "version": 1
  },
  "userdoc": {
    "kind": "user",
    "methods": {},
    "version": 1
  },
  "storageLayout": {
    "storage": [
      {
        "astId": 980,
        "contract": "contracts/ifo/IFOFactory.sol:IFOFactory",
        "label": "ifos",
        "offset": 0,
        "slot": "0",
        "type": "t_mapping(t_contract(ERC20)699,t_contract(IFO)970)"
      }
    ],
    "types": {
      "t_contract(ERC20)699": {
        "encoding": "inplace",
        "label": "contract ERC20",
        "numberOfBytes": "20"
      },
      "t_contract(IFO)970": {
        "encoding": "inplace",
        "label": "contract IFO",
        "numberOfBytes": "20"
      },
      "t_mapping(t_contract(ERC20)699,t_contract(IFO)970)": {
        "encoding": "mapping",
        "key": "t_contract(ERC20)699",
        "label": "mapping(contract ERC20 => contract IFO)",
        "numberOfBytes": "32",
        "value": "t_contract(IFO)970"
      }
    }
  }
}