{
  "address": "0xC43f5e474DBBc76FAad6BaaA62e32E41f1C834DF",
  "abi": [
    {
      "inputs": [
        {
          "internalType": "contract ERC20",
          "name": "fnft",
          "type": "address"
        },
        {
          "internalType": "uint256",
          "name": "amount",
          "type": "uint256"
        },
        {
          "internalType": "uint256",
          "name": "price",
          "type": "uint256"
        }
      ],
      "name": "create",
      "outputs": [
        {
          "internalType": "contract IFO",
          "name": "",
          "type": "address"
        }
      ],
      "stateMutability": "nonpayable",
      "type": "function"
    },
    {
      "inputs": [
        {
          "internalType": "contract ERC20",
          "name": "",
          "type": "address"
        }
      ],
      "name": "ifos",
      "outputs": [
        {
          "internalType": "contract IFO",
          "name": "",
          "type": "address"
        }
      ],
      "stateMutability": "view",
      "type": "function"
    }
  ],
  "transactionHash": "0xeb0013f4b78ebe1d7f3e52c5f5d06f36bce11d2e9b2f31a5f9f95792c904fb76",
  "args": [],
  "numDeployments": 2,
  "solcInputHash": "30baca4125f076438be6159a7f6e45b1",
  "bytecode": "0x608060405234801561001057600080fd5b50610b38806100206000396000f3fe608060405234801561001057600080fd5b50600436106100365760003560e01c80633154782f1461003b5780635165da3014610080575b600080fd5b610064610049366004610140565b6000602081905290815260409020546001600160a01b031681565b6040516001600160a01b03909116815260200160405180910390f35b61006461008e366004610162565b6000833384846040516100a090610117565b6001600160a01b03948516815293909216602084015260408301526060820152608001604051809103906000f0801580156100df573d6000803e3d6000fd5b506001600160a01b03948516600090815260208190526040902080546001600160a01b03191691909516908117909455509192915050565b61096d8061019683390190565b80356001600160a01b038116811461013b57600080fd5b919050565b60006020828403121561015257600080fd5b61015b82610124565b9392505050565b60008060006060848603121561017757600080fd5b61018084610124565b9560208501359550604090940135939250505056fe608060405234801561001057600080fd5b5060405161096d38038061096d83398101604081905261002f9161022a565b610038336100eb565b6100418361013b565b600180546001600160a01b0319166001600160a01b03868116918217835560028490556003805460ff19169093179092556040516323b872dd60e01b8152918516600483015230602483015260448201849052906323b872dd906064016020604051808303816000875af11580156100bd573d6000803e3d6000fd5b505050506040513d601f19601f820116820180604052508101906100e19190610272565b505050505061029b565b600080546001600160a01b038381166001600160a01b0319831681178455604051919092169283917f8be0079c531659141344cd1fd0a4f28419497f9722a3daafe3b4186f6b6457e09190a35050565b6101436101b9565b6001600160a01b0381166101ad5760405162461bcd60e51b815260206004820152602660248201527f4f776e61626c653a206e6577206f776e657220697320746865207a65726f206160448201526564647265737360d01b60648201526084015b60405180910390fd5b6101b6816100eb565b50565b6000546001600160a01b031633146102135760405162461bcd60e51b815260206004820181905260248201527f4f776e61626c653a2063616c6c6572206973206e6f7420746865206f776e657260448201526064016101a4565b565b6001600160a01b03811681146101b657600080fd5b6000806000806080858703121561024057600080fd5b845161024b81610215565b602086015190945061025c81610215565b6040860151606090960151949790965092505050565b60006020828403121561028457600080fd5b8151801515811461029457600080fd5b9392505050565b6106c3806102aa6000396000f3fe6080604052600436106100865760003560e01c8063a035b1fe11610059578063a035b1fe14610118578063a6f2ae3a1461013c578063aace52fe14610144578063f2fde38b1461015a578063fb81a8b51461017a57600080fd5b806307da68f51461008b578063715018a6146100a25780637ab13ba9146100b75780638da5cb5b146100e6575b600080fd5b34801561009757600080fd5b506100a061019a565b005b3480156100ae57600080fd5b506100a06102c3565b3480156100c357600080fd5b506003546100d19060ff1681565b60405190151581526020015b60405180910390f35b3480156100f257600080fd5b506000546001600160a01b03165b6040516001600160a01b0390911681526020016100dd565b34801561012457600080fd5b5061012e60025481565b6040519081526020016100dd565b6100a06102d7565b34801561015057600080fd5b5061012e60045481565b34801561016657600080fd5b506100a06101753660046105da565b6104ba565b34801561018657600080fd5b50600154610100906001600160a01b031681565b6101a2610530565b6003805460ff191690556001546040516370a0823160e01b81523060048201526001600160a01b039091169063a9059cbb90339083906370a0823190602401602060405180830381865afa1580156101fe573d6000803e3d6000fd5b505050506040513d601f19601f82011682018060405250810190610222919061060a565b6040516001600160e01b031960e085901b1681526001600160a01b03909216600483015260248201526044016020604051808303816000875af115801561026d573d6000803e3d6000fd5b505050506040513d601f19601f820116820180604052508101906102919190610623565b50600454604051339180156108fc02916000818181858888f193505050501580156102c0573d6000803e3d6000fd5b50565b6102cb610530565b6102d5600061058a565b565b60035460ff166103245760405162461bcd60e51b815260206004820152601360248201527249464f206973206e6f742070726f677265737360681b60448201526064015b60405180910390fd5b6002543410156103695760405162461bcd60e51b815260206004820152601060248201526f4e6f7420656e6f75676820707269636560801b604482015260640161031b565b6000600254346103799190610645565b6001546040516370a0823160e01b81523060048201529192506001600160a01b0316906370a0823190602401602060405180830381865afa1580156103c2573d6000803e3d6000fd5b505050506040513d601f19601f820116820180604052508101906103e6919061060a565b81111561042a5760405162461bcd60e51b81526020600482015260126024820152714e6f7420656e6f7567682062616c616e636560701b604482015260640161031b565b60015460405163a9059cbb60e01b8152336004820152602481018390526001600160a01b039091169063a9059cbb906044016020604051808303816000875af115801561047b573d6000803e3d6000fd5b505050506040513d601f19601f8201168201806040525081019061049f9190610623565b5034600460008282546104b29190610667565b909155505050565b6104c2610530565b6001600160a01b0381166105275760405162461bcd60e51b815260206004820152602660248201527f4f776e61626c653a206e6577206f776e657220697320746865207a65726f206160448201526564647265737360d01b606482015260840161031b565b6102c08161058a565b6000546001600160a01b031633146102d55760405162461bcd60e51b815260206004820181905260248201527f4f776e61626c653a2063616c6c6572206973206e6f7420746865206f776e6572604482015260640161031b565b600080546001600160a01b038381166001600160a01b0319831681178455604051919092169283917f8be0079c531659141344cd1fd0a4f28419497f9722a3daafe3b4186f6b6457e09190a35050565b6000602082840312156105ec57600080fd5b81356001600160a01b038116811461060357600080fd5b9392505050565b60006020828403121561061c57600080fd5b5051919050565b60006020828403121561063557600080fd5b8151801515811461060357600080fd5b60008261066257634e487b7160e01b600052601260045260246000fd5b500490565b6000821982111561068857634e487b7160e01b600052601160045260246000fd5b50019056fea26469706673582212206c511ec9ef3ae247842ae1a6530256a36d5a0bd9477ec6e2ce96bd050b13b85e64736f6c634300080c0033a2646970667358221220b77c4e3a28dc1677ed9b227d2b39ac5b2c830261aaece1f6950117ced46b6aa264736f6c634300080c0033",
  "devdoc": {
    "kind": "dev",
    "methods": {},
    "version": 1
  },
  "userdoc": {
    "kind": "user",
    "methods": {},
    "version": 1
  },
  "storageLayout": {
    "storage": [
      {
        "astId": 4478,
        "contract": "contracts/ifo/IFOFactory.sol:IFOFactory",
        "label": "ifos",
        "offset": 0,
        "slot": "0",
        "type": "t_mapping(t_contract(ERC20)699,t_contract(IFO)4468)"
      }
    ],
    "types": {
      "t_contract(ERC20)699": {
        "encoding": "inplace",
        "label": "contract ERC20",
        "numberOfBytes": "20"
      },
      "t_contract(IFO)4468": {
        "encoding": "inplace",
        "label": "contract IFO",
        "numberOfBytes": "20"
      },
      "t_mapping(t_contract(ERC20)699,t_contract(IFO)4468)": {
        "encoding": "mapping",
        "key": "t_contract(ERC20)699",
        "label": "mapping(contract ERC20 => contract IFO)",
        "numberOfBytes": "32",
        "value": "t_contract(IFO)4468"
      }
    }
  }
}